{
  "contractName": "Ballot",
  "abi": [
    {
      "inputs": [
        {
          "internalType": "bytes32[]",
          "name": "proposalNames",
          "type": "bytes32[]"
        }
      ],
      "stateMutability": "nonpayable",
      "type": "constructor"
    },
    {
      "inputs": [],
      "name": "chairperson",
      "outputs": [
        {
          "internalType": "address",
          "name": "",
          "type": "address"
        }
      ],
      "stateMutability": "view",
      "type": "function"
    },
    {
      "inputs": [
        {
          "internalType": "uint256",
          "name": "",
          "type": "uint256"
        }
      ],
      "name": "proposals",
      "outputs": [
        {
          "internalType": "bytes32",
          "name": "name",
          "type": "bytes32"
        },
        {
          "internalType": "uint256",
          "name": "voteCount",
          "type": "uint256"
        }
      ],
      "stateMutability": "view",
      "type": "function"
    },
    {
      "inputs": [
        {
          "internalType": "address",
          "name": "",
          "type": "address"
        }
      ],
      "name": "voters",
      "outputs": [
        {
          "internalType": "uint256",
          "name": "weight",
          "type": "uint256"
        },
        {
          "internalType": "bool",
          "name": "voted",
          "type": "bool"
        },
        {
          "internalType": "address",
          "name": "delegate",
          "type": "address"
        },
        {
          "internalType": "uint256",
          "name": "vote",
          "type": "uint256"
        }
      ],
      "stateMutability": "view",
      "type": "function"
    },
    {
      "inputs": [
        {
          "internalType": "address",
          "name": "voter",
          "type": "address"
        }
      ],
      "name": "giveRightToVote",
      "outputs": [],
      "stateMutability": "nonpayable",
      "type": "function"
    },
    {
      "inputs": [
        {
          "internalType": "address",
          "name": "to",
          "type": "address"
        }
      ],
      "name": "delegate",
      "outputs": [],
      "stateMutability": "nonpayable",
      "type": "function"
    },
    {
      "inputs": [
        {
          "internalType": "uint256",
          "name": "proposal",
          "type": "uint256"
        }
      ],
      "name": "vote",
      "outputs": [],
      "stateMutability": "nonpayable",
      "type": "function"
    },
    {
      "inputs": [],
      "name": "winningProposal",
      "outputs": [
        {
          "internalType": "uint256",
          "name": "winningProposal_",
          "type": "uint256"
        }
      ],
      "stateMutability": "view",
      "type": "function"
    },
    {
      "inputs": [],
      "name": "winnerName",
      "outputs": [
        {
          "internalType": "bytes32",
          "name": "winnerName_",
          "type": "bytes32"
        }
      ],
      "stateMutability": "view",
      "type": "function"
    }
  ],
  "bytecode": "0x60806040523480156200001157600080fd5b50604051620014e1380380620014e183398181016040528101906200003791906200025b565b336000806101000a81548173ffffffffffffffffffffffffffffffffffffffff021916908373ffffffffffffffffffffffffffffffffffffffff16021790555060018060008060009054906101000a900473ffffffffffffffffffffffffffffffffffffffff1673ffffffffffffffffffffffffffffffffffffffff1673ffffffffffffffffffffffffffffffffffffffff1681526020019081526020016000206000018190555060005b81518110156200019a576002604051806040016040528084848151811062000133577f4e487b7100000000000000000000000000000000000000000000000000000000600052603260045260246000fd5b6020026020010151815260200160008152509080600181540180825580915050600190039060005260206000209060020201600090919091909150600082015181600001556020820151816001015550508080620001919062000317565b915050620000e2565b5050620003dd565b6000620001b9620001b384620002d4565b620002a0565b90508083825260208201905082856020860282011115620001d957600080fd5b60005b858110156200020d5781620001f2888262000244565b845260208401935060208301925050600181019050620001dc565b5050509392505050565b600082601f8301126200022957600080fd5b81516200023b848260208601620001a2565b91505092915050565b6000815190506200025581620003c3565b92915050565b6000602082840312156200026e57600080fd5b600082015167ffffffffffffffff8111156200028957600080fd5b620002978482850162000217565b91505092915050565b6000604051905081810181811067ffffffffffffffff82111715620002ca57620002c962000394565b5b8060405250919050565b600067ffffffffffffffff821115620002f257620002f162000394565b5b602082029050602081019050919050565b6000819050919050565b6000819050919050565b600062000324826200030d565b91507fffffffffffffffffffffffffffffffffffffffffffffffffffffffffffffffff8214156200035a576200035962000365565b5b600182019050919050565b7f4e487b7100000000000000000000000000000000000000000000000000000000600052601160045260246000fd5b7f4e487b7100000000000000000000000000000000000000000000000000000000600052604160045260246000fd5b620003ce8162000303565b8114620003da57600080fd5b50565b6110f480620003ed6000396000f3fe608060405234801561001057600080fd5b50600436106100885760003560e01c8063609ff1bd1161005b578063609ff1bd146101145780639e7b8d6114610132578063a3ec138d1461014e578063e2ba53f01461018157610088565b80630121b93f1461008d578063013cf08b146100a95780632e4176cf146100da5780635c19a95c146100f8575b600080fd5b6100a760048036038101906100a29190610b15565b61019f565b005b6100c360048036038101906100be9190610b15565b61030c565b6040516100d1929190610dd6565b60405180910390f35b6100e2610340565b6040516100ef9190610da0565b60405180910390f35b610112600480360381019061010d9190610aec565b610364565b005b61011c610780565b6040516101299190610eff565b60405180910390f35b61014c60048036038101906101479190610aec565b610854565b005b61016860048036038101906101639190610aec565b610a0b565b6040516101789493929190610f1a565b60405180910390f35b610189610a68565b6040516101969190610dbb565b60405180910390f35b6000600160003373ffffffffffffffffffffffffffffffffffffffff1673ffffffffffffffffffffffffffffffffffffffff168152602001908152602001600020905060008160000154141561022a576040517f08c379a000000000000000000000000000000000000000000000000000000000815260040161022190610dff565b60405180910390fd5b8060010160009054906101000a900460ff161561027c576040517f08c379a000000000000000000000000000000000000000000000000000000000815260040161027390610e3f565b60405180910390fd5b60018160010160006101000a81548160ff0219169083151502179055508181600201819055508060000154600283815481106102e1577f4e487b7100000000000000000000000000000000000000000000000000000000600052603260045260246000fd5b906000526020600020906002020160010160008282546103019190610f70565b925050819055505050565b6002818154811061031c57600080fd5b90600052602060002090600202016000915090508060000154908060010154905082565b60008054906101000a900473ffffffffffffffffffffffffffffffffffffffff1681565b6000600160003373ffffffffffffffffffffffffffffffffffffffff1673ffffffffffffffffffffffffffffffffffffffff16815260200190815260200160002090506000816000015414156103ef576040517f08c379a00000000000000000000000000000000000000000000000000000000081526004016103e690610e1f565b60405180910390fd5b8060010160009054906101000a900460ff1615610441576040517f08c379a000000000000000000000000000000000000000000000000000000000815260040161043890610e5f565b60405180910390fd5b3373ffffffffffffffffffffffffffffffffffffffff168273ffffffffffffffffffffffffffffffffffffffff1614156104b0576040517f08c379a00000000000000000000000000000000000000000000000000000000081526004016104a790610edf565b60405180910390fd5b5b600073ffffffffffffffffffffffffffffffffffffffff16600160008473ffffffffffffffffffffffffffffffffffffffff1673ffffffffffffffffffffffffffffffffffffffff16815260200190815260200160002060010160019054906101000a900473ffffffffffffffffffffffffffffffffffffffff1673ffffffffffffffffffffffffffffffffffffffff161461062057600160008373ffffffffffffffffffffffffffffffffffffffff1673ffffffffffffffffffffffffffffffffffffffff16815260200190815260200160002060010160019054906101000a900473ffffffffffffffffffffffffffffffffffffffff1691503373ffffffffffffffffffffffffffffffffffffffff168273ffffffffffffffffffffffffffffffffffffffff16141561061b576040517f08c379a000000000000000000000000000000000000000000000000000000000815260040161061290610e9f565b60405180910390fd5b6104b1565b6000600160008473ffffffffffffffffffffffffffffffffffffffff1673ffffffffffffffffffffffffffffffffffffffff168152602001908152602001600020905060018160000154101561067557600080fd5b60018260010160006101000a81548160ff021916908315150217905550828260010160016101000a81548173ffffffffffffffffffffffffffffffffffffffff021916908373ffffffffffffffffffffffffffffffffffffffff1602179055508060010160009054906101000a900460ff161561075b578160000154600282600201548154811061072f577f4e487b7100000000000000000000000000000000000000000000000000000000600052603260045260246000fd5b9060005260206000209060020201600101600082825461074f9190610f70565b9250508190555061077b565b81600001548160000160008282546107739190610f70565b925050819055505b505050565b6000806000905060005b60028054905081101561084f5781600282815481106107d2577f4e487b7100000000000000000000000000000000000000000000000000000000600052603260045260246000fd5b906000526020600020906002020160010154111561083c5760028181548110610824577f4e487b7100000000000000000000000000000000000000000000000000000000600052603260045260246000fd5b90600052602060002090600202016001015491508092505b808061084790611018565b91505061078a565b505090565b60008054906101000a900473ffffffffffffffffffffffffffffffffffffffff1673ffffffffffffffffffffffffffffffffffffffff163373ffffffffffffffffffffffffffffffffffffffff16146108e2576040517f08c379a00000000000000000000000000000000000000000000000000000000081526004016108d990610e7f565b60405180910390fd5b600160008273ffffffffffffffffffffffffffffffffffffffff1673ffffffffffffffffffffffffffffffffffffffff16815260200190815260200160002060010160009054906101000a900460ff1615610972576040517f08c379a000000000000000000000000000000000000000000000000000000000815260040161096990610ebf565b60405180910390fd5b6000600160008373ffffffffffffffffffffffffffffffffffffffff1673ffffffffffffffffffffffffffffffffffffffff16815260200190815260200160002060000154146109c157600080fd5b60018060008373ffffffffffffffffffffffffffffffffffffffff1673ffffffffffffffffffffffffffffffffffffffff1681526020019081526020016000206000018190555050565b60016020528060005260406000206000915090508060000154908060010160009054906101000a900460ff16908060010160019054906101000a900473ffffffffffffffffffffffffffffffffffffffff16908060020154905084565b60006002610a74610780565b81548110610aab577f4e487b7100000000000000000000000000000000000000000000000000000000600052603260045260246000fd5b906000526020600020906002020160000154905090565b600081359050610ad181611090565b92915050565b600081359050610ae6816110a7565b92915050565b600060208284031215610afe57600080fd5b6000610b0c84828501610ac2565b91505092915050565b600060208284031215610b2757600080fd5b6000610b3584828501610ad7565b91505092915050565b610b4781610fc6565b82525050565b610b5681610fd8565b82525050565b610b6581610fe4565b82525050565b6000610b78601483610f5f565b91507f486173206e6f20726967687420746f20766f74650000000000000000000000006000830152602082019050919050565b6000610bb8601983610f5f565b91507f596f752068617665206e6f20726967687420746f20766f7465000000000000006000830152602082019050919050565b6000610bf8600e83610f5f565b91507f416c726561647920766f7465642e0000000000000000000000000000000000006000830152602082019050919050565b6000610c38601283610f5f565b91507f596f7520616c726561647920766f7465642e00000000000000000000000000006000830152602082019050919050565b6000610c78602883610f5f565b91507f4f6e6c79206368616972706572736f6e2063616e20676976652072696768742060008301527f746f20766f74652e0000000000000000000000000000000000000000000000006020830152604082019050919050565b6000610cde601983610f5f565b91507f466f756e64206c6f6f7020696e2064656c65676174696f6e2e000000000000006000830152602082019050919050565b6000610d1e601883610f5f565b91507f54686520766f74657220616c726561647920766f7465642e00000000000000006000830152602082019050919050565b6000610d5e601e83610f5f565b91507f53656c662d64656c65676174696f6e20697320646973616c6c6f7765642e00006000830152602082019050919050565b610d9a8161100e565b82525050565b6000602082019050610db56000830184610b3e565b92915050565b6000602082019050610dd06000830184610b5c565b92915050565b6000604082019050610deb6000830185610b5c565b610df86020830184610d91565b9392505050565b60006020820190508181036000830152610e1881610b6b565b9050919050565b60006020820190508181036000830152610e3881610bab565b9050919050565b60006020820190508181036000830152610e5881610beb565b9050919050565b60006020820190508181036000830152610e7881610c2b565b9050919050565b60006020820190508181036000830152610e9881610c6b565b9050919050565b60006020820190508181036000830152610eb881610cd1565b9050919050565b60006020820190508181036000830152610ed881610d11565b9050919050565b60006020820190508181036000830152610ef881610d51565b9050919050565b6000602082019050610f146000830184610d91565b92915050565b6000608082019050610f2f6000830187610d91565b610f3c6020830186610b4d565b610f496040830185610b3e565b610f566060830184610d91565b95945050505050565b600082825260208201905092915050565b6000610f7b8261100e565b9150610f868361100e565b9250827fffffffffffffffffffffffffffffffffffffffffffffffffffffffffffffffff03821115610fbb57610fba611061565b5b828201905092915050565b6000610fd182610fee565b9050919050565b60008115159050919050565b6000819050919050565b600073ffffffffffffffffffffffffffffffffffffffff82169050919050565b6000819050919050565b60006110238261100e565b91507fffffffffffffffffffffffffffffffffffffffffffffffffffffffffffffffff82141561105657611055611061565b5b600182019050919050565b7f4e487b7100000000000000000000000000000000000000000000000000000000600052601160045260246000fd5b61109981610fc6565b81146110a457600080fd5b50565b6110b08161100e565b81146110bb57600080fd5b5056fea2646970667358221220020fe92386865c633b38cba5b8d9f010baeeba7fd7330489b996569a1ae2041e64736f6c63430008000033",
  "immutableReferences": {},
  "source": "// SPDX-License-Identifier: GPL-3.0\r\npragma solidity >=0.7.0 <0.9.0;\r\n/// @title \r\ncontract Ballot {\r\n    // \r\n    // \r\n    struct Voter {\r\n        uint weight; // \r\n        bool voted;  // \r\n        address delegate; // \r\n        uint vote;   // \r\n    }\r\n\r\n    // \r\n    struct Proposal {\r\n        bytes32 name;   // 32\r\n        uint voteCount; // \r\n    }\r\n\r\n    address public chairperson;\r\n    //  `Voter`\r\n    mapping(address => Voter) public voters;\r\n\r\n    //  `Proposal` \r\n    Proposal[] public proposals;\r\n\r\n    ///  `proposalNames` \r\n    constructor(bytes32[] memory proposalNames) {\r\n        chairperson = msg.sender;\r\n        voters[chairperson].weight = 1;\r\n\r\n        // \r\n        //  Proposal \r\n        for (uint i = 0; i < proposalNames.length; i++) {\r\n            // `Proposal({...})`  Proposal \r\n            // `proposals.push(...)`  `proposals` \r\n            proposals.push(Proposal({\r\n                name: proposalNames[i],\r\n                voteCount: 0\r\n            }));\r\n        }\r\n    }\r\n\r\n    //  `voter` \r\n    //  `chairperson` \r\n    function giveRightToVote(address voter) external {\r\n        //  `require`  `false`\r\n        // \r\n        //  EVM  gas\r\n        //  `require` \r\n        //  `require` \r\n        require(\r\n            msg.sender == chairperson,\r\n            \"Only chairperson can give right to vote.\"\r\n        );\r\n        require(\r\n            !voters[voter].voted,\r\n            \"The voter already voted.\"\r\n        );\r\n        require(voters[voter].weight == 0);\r\n        voters[voter].weight = 1;\r\n    }\r\n\r\n    ///  `to`\r\n    function delegate(address to) external {\r\n        // \r\n        Voter storage sender = voters[msg.sender];\r\n        require(sender.weight != 0, \"You have no right to vote\");\r\n        require(!sender.voted, \"You already voted.\");\r\n\r\n        require(to != msg.sender, \"Self-delegation is disallowed.\");\r\n\r\n        //  `to` \r\n        // \r\n        // gas\r\n        // \r\n        //  \"\"\r\n        while (voters[to].delegate != address(0)) {\r\n            to = voters[to].delegate;\r\n\r\n            // \r\n            require(to != msg.sender, \"Found loop in delegation.\");\r\n        }\r\n\r\n        Voter storage delegate_ = voters[to];\r\n\r\n        // \r\n        require(delegate_.weight >= 1);\r\n\r\n        //  `sender` \r\n        //  `voters[msg.sender]`\r\n        sender.voted = true;\r\n        sender.delegate = to;\r\n\r\n        if (delegate_.voted) {\r\n            // \r\n            proposals[delegate_.vote].voteCount += sender.weight;\r\n        } else {\r\n            // \r\n            delegate_.weight += sender.weight;\r\n        }\r\n    }\r\n\r\n    /// ()\r\n    ///  `proposals[proposal].name`\r\n    function vote(uint proposal) external {\r\n        Voter storage sender = voters[msg.sender];\r\n        require(sender.weight != 0, \"Has no right to vote\");\r\n        require(!sender.voted, \"Already voted.\");\r\n        sender.voted = true;\r\n        sender.vote = proposal;\r\n\r\n        //  `proposal` \r\n        // \r\n        proposals[proposal].voteCount += sender.weight;\r\n    }\r\n\r\n    /// @dev \r\n    function winningProposal() public view\r\n            returns (uint winningProposal_)\r\n    {\r\n        uint winningVoteCount = 0;\r\n        for (uint p = 0; p < proposals.length; p++) {\r\n            if (proposals[p].voteCount > winningVoteCount) {\r\n                winningVoteCount = proposals[p].voteCount;\r\n                winningProposal_ = p;\r\n            }\r\n        }\r\n    }\r\n\r\n    //  `winningProposal()` \r\n    // \r\n    function winnerName() external view\r\n            returns (bytes32 winnerName_)\r\n    {\r\n        winnerName_ = proposals[winningProposal()].name;\r\n    }\r\n}",
  "sourcePath": "C:\\Users\\86139\\Desktop\\yitaifang\\contracts\\hol.sol",
  "compiler": {
    "name": "solc",
    "version": "0.8.0+commit.c7dfd78e.Emscripten.clang"
  },
  "schemaVersion": "3.4.16",
  "updatedAt": "2024-06-20T13:47:55.195Z",
  "devdoc": {
    "kind": "dev",
    "methods": {
      "winningProposal()": {
        "details": ""
      }
    },
    "title": "",
    "version": 1
  },
  "userdoc": {
    "kind": "user",
    "methods": {
      "constructor": {
        "notice": " `proposalNames` "
      },
      "delegate(address)": {
        "notice": " `to`"
      },
      "vote(uint256)": {
        "notice": "()  `proposals[proposal].name`"
      }
    },
    "version": 1
  }
}