{
  "contractName": "BallotSystem",
  "abi": [
    {
      "inputs": [
        {
          "internalType": "uint256",
          "name": "initialWeight",
          "type": "uint256"
        }
      ],
      "stateMutability": "nonpayable",
      "type": "constructor"
    },
    {
      "inputs": [],
      "name": "MAX_UINT8",
      "outputs": [
        {
          "internalType": "uint256",
          "name": "",
          "type": "uint256"
        }
      ],
      "stateMutability": "view",
      "type": "function"
    },
    {
      "inputs": [],
      "name": "administrator",
      "outputs": [
        {
          "internalType": "address",
          "name": "",
          "type": "address"
        }
      ],
      "stateMutability": "view",
      "type": "function"
    },
    {
      "inputs": [],
      "name": "currentProposalCount",
      "outputs": [
        {
          "internalType": "uint256",
          "name": "",
          "type": "uint256"
        }
      ],
      "stateMutability": "view",
      "type": "function"
    },
    {
      "inputs": [
        {
          "internalType": "uint256",
          "name": "",
          "type": "uint256"
        }
      ],
      "name": "proposalsList",
      "outputs": [
        {
          "internalType": "string",
          "name": "title",
          "type": "string"
        },
        {
          "internalType": "string",
          "name": "description",
          "type": "string"
        },
        {
          "internalType": "uint256",
          "name": "voteCount",
          "type": "uint256"
        },
        {
          "internalType": "bool",
          "name": "isActive",
          "type": "bool"
        }
      ],
      "stateMutability": "view",
      "type": "function"
    },
    {
      "inputs": [
        {
          "internalType": "address",
          "name": "",
          "type": "address"
        }
      ],
      "name": "voterRegistry",
      "outputs": [
        {
          "internalType": "bool",
          "name": "hasVoted",
          "type": "bool"
        },
        {
          "internalType": "uint256",
          "name": "weight",
          "type": "uint256"
        },
        {
          "internalType": "uint8",
          "name": "selectedProposal",
          "type": "uint8"
        },
        {
          "internalType": "address",
          "name": "delegateAddress",
          "type": "address"
        }
      ],
      "stateMutability": "view",
      "type": "function"
    },
    {
      "inputs": [
        {
          "internalType": "string",
          "name": "proposalTitle",
          "type": "string"
        },
        {
          "internalType": "string",
          "name": "proposalDescription",
          "type": "string"
        }
      ],
      "name": "addProposal",
      "outputs": [],
      "stateMutability": "nonpayable",
      "type": "function"
    },
    {
      "inputs": [
        {
          "internalType": "address",
          "name": "voter",
          "type": "address"
        },
        {
          "internalType": "uint256",
          "name": "weight",
          "type": "uint256"
        }
      ],
      "name": "authorizeVoter",
      "outputs": [],
      "stateMutability": "nonpayable",
      "type": "function"
    },
    {
      "inputs": [
        {
          "internalType": "address",
          "name": "to",
          "type": "address"
        }
      ],
      "name": "delegateVote",
      "outputs": [],
      "stateMutability": "nonpayable",
      "type": "function"
    },
    {
      "inputs": [
        {
          "internalType": "uint8",
          "name": "proposalID",
          "type": "uint8"
        }
      ],
      "name": "castVote",
      "outputs": [],
      "stateMutability": "nonpayable",
      "type": "function"
    },
    {
      "inputs": [],
      "name": "winningProposal",
      "outputs": [
        {
          "internalType": "uint256",
          "name": "winningProposal_",
          "type": "uint256"
        }
      ],
      "stateMutability": "view",
      "type": "function"
    }
  ],
  "bytecode": "0x60806040523480156200001157600080fd5b506040516200206c3803806200206c8339818101604052810190620000379190620002a8565b336000806101000a81548173ffffffffffffffffffffffffffffffffffffffff021916908373ffffffffffffffffffffffffffffffffffffffff16021790555080600360008060009054906101000a900473ffffffffffffffffffffffffffffffffffffffff1673ffffffffffffffffffffffffffffffffffffffff1673ffffffffffffffffffffffffffffffffffffffff1681526020019081526020016000206001018190555060005b60ff8111620001d9576001604051806080016040528060405180602001604052806000815250815260200160405180602001604052806000815250815260200160008152602001600015158152509080600181540180825580915050600190039060005260206000209060040201600090919091909150600082015181600001908051906020019062000177929190620001e1565b50602082015181600101908051906020019062000196929190620001e1565b506040820151816002015560608201518160030160006101000a81548160ff02191690831515021790555050508080620001d09062000314565b915050620000e2565b5050620003da565b828054620001ef90620002de565b90600052602060002090601f0160209004810192826200021357600085556200025f565b82601f106200022e57805160ff19168380011785556200025f565b828001600101855582156200025f579182015b828111156200025e57825182559160200191906001019062000241565b5b5090506200026e919062000272565b5090565b5b808211156200028d57600081600090555060010162000273565b5090565b600081519050620002a281620003c0565b92915050565b600060208284031215620002bb57600080fd5b6000620002cb8482850162000291565b91505092915050565b6000819050919050565b60006002820490506001821680620002f757607f821691505b602082108114156200030e576200030d62000391565b5b50919050565b60006200032182620002d4565b91507fffffffffffffffffffffffffffffffffffffffffffffffffffffffffffffffff82141562000357576200035662000362565b5b600182019050919050565b7f4e487b7100000000000000000000000000000000000000000000000000000000600052601160045260246000fd5b7f4e487b7100000000000000000000000000000000000000000000000000000000600052602260045260246000fd5b620003cb81620002d4565b8114620003d757600080fd5b50565b611c8280620003ea6000396000f3fe608060405234801561001057600080fd5b506004361061009e5760003560e01c8063be82ae0611610066578063be82ae0614610148578063d488743714610164578063e595702314610182578063e5e021ba146101b5578063f53d0a8e146101d35761009e565b806323d1c95e146100a35780634763d4e7146100bf578063609ff1bd146100f257806394a1354114610110578063b31e1d4d1461012c575b600080fd5b6100bd60048036038101906100b891906113fd565b6101f1565b005b6100d960048036038101906100d49190611398565b61037b565b6040516100e994939291906117b1565b60405180910390f35b6100fa6103e5565b6040516101079190611969565b60405180910390f35b61012a60048036038101906101259190611492565b6104b9565b005b61014660048036038101906101419190611398565b61079d565b005b610162600480360381019061015d91906113c1565b610e81565b005b61016c6110c2565b6040516101799190611969565b60405180910390f35b61019c60048036038101906101979190611469565b6110c7565b6040516101ac94939291906117f6565b60405180910390f35b6101bd611224565b6040516101ca9190611969565b60405180910390f35b6101db61122a565b6040516101e89190611796565b60405180910390f35b60ff60025410610236576040517f08c379a000000000000000000000000000000000000000000000000000000000815260040161022d90611889565b60405180910390fd5b6002600081548092919061024990611b20565b91905055508160016002548154811061028b577f4e487b7100000000000000000000000000000000000000000000000000000000600052603260045260246000fd5b906000526020600020906004020160000190805190602001906102af92919061124e565b50806001600254815481106102ed577f4e487b7100000000000000000000000000000000000000000000000000000000600052603260045260246000fd5b9060005260206000209060040201600101908051906020019061031192919061124e565b506001806002548154811061034f577f4e487b7100000000000000000000000000000000000000000000000000000000600052603260045260246000fd5b906000526020600020906004020160030160006101000a81548160ff0219169083151502179055505050565b60036020528060005260406000206000915090508060000160009054906101000a900460ff16908060010154908060020160009054906101000a900460ff16908060020160019054906101000a900473ffffffffffffffffffffffffffffffffffffffff16905084565b6000806000905060005b6001805490508110156104b4578160018281548110610437577f4e487b7100000000000000000000000000000000000000000000000000000000600052603260045260246000fd5b90600052602060002090600402016002015411156104a15760018181548110610489577f4e487b7100000000000000000000000000000000000000000000000000000000600052603260045260246000fd5b90600052602060002090600402016002015491508092505b80806104ac90611b20565b9150506103ef565b505090565b33600360008273ffffffffffffffffffffffffffffffffffffffff1673ffffffffffffffffffffffffffffffffffffffff16815260200190815260200160002060000160009054906101000a900460ff161561054a576040517f08c379a000000000000000000000000000000000000000000000000000000000815260040161054190611909565b60405180910390fd5b60008260ff1610158015610562575060ff8260ff1611155b6105a1576040517f08c379a000000000000000000000000000000000000000000000000000000000815260040161059890611849565b60405180910390fd5b60018260ff16815481106105de577f4e487b7100000000000000000000000000000000000000000000000000000000600052603260045260246000fd5b906000526020600020906004020160030160009054906101000a900460ff1661063c576040517f08c379a000000000000000000000000000000000000000000000000000000000815260040161063390611929565b60405180910390fd5b600360003373ffffffffffffffffffffffffffffffffffffffff1673ffffffffffffffffffffffffffffffffffffffff1681526020019081526020016000206001015460018360ff16815481106106bc577f4e487b7100000000000000000000000000000000000000000000000000000000600052603260045260246000fd5b906000526020600020906004020160020160008282546106dc9190611a01565b9250508190555081600360003373ffffffffffffffffffffffffffffffffffffffff1673ffffffffffffffffffffffffffffffffffffffff16815260200190815260200160002060020160006101000a81548160ff021916908360ff1602179055506001600360003373ffffffffffffffffffffffffffffffffffffffff1673ffffffffffffffffffffffffffffffffffffffff16815260200190815260200160002060000160006101000a81548160ff0219169083151502179055505050565b33600360008273ffffffffffffffffffffffffffffffffffffffff1673ffffffffffffffffffffffffffffffffffffffff16815260200190815260200160002060000160009054906101000a900460ff161561082e576040517f08c379a000000000000000000000000000000000000000000000000000000000815260040161082590611909565b60405180910390fd5b3373ffffffffffffffffffffffffffffffffffffffff168273ffffffffffffffffffffffffffffffffffffffff16141561089d576040517f08c379a000000000000000000000000000000000000000000000000000000000815260040161089490611949565b60405180910390fd5b5b600073ffffffffffffffffffffffffffffffffffffffff16600360008473ffffffffffffffffffffffffffffffffffffffff1673ffffffffffffffffffffffffffffffffffffffff16815260200190815260200160002060020160019054906101000a900473ffffffffffffffffffffffffffffffffffffffff1673ffffffffffffffffffffffffffffffffffffffff16141580156109cb57503373ffffffffffffffffffffffffffffffffffffffff16600360008473ffffffffffffffffffffffffffffffffffffffff1673ffffffffffffffffffffffffffffffffffffffff16815260200190815260200160002060020160019054906101000a900473ffffffffffffffffffffffffffffffffffffffff1673ffffffffffffffffffffffffffffffffffffffff1614155b15610a3a57600360008373ffffffffffffffffffffffffffffffffffffffff1673ffffffffffffffffffffffffffffffffffffffff16815260200190815260200160002060020160019054906101000a900473ffffffffffffffffffffffffffffffffffffffff16915061089e565b3373ffffffffffffffffffffffffffffffffffffffff16600360008473ffffffffffffffffffffffffffffffffffffffff1673ffffffffffffffffffffffffffffffffffffffff16815260200190815260200160002060020160019054906101000a900473ffffffffffffffffffffffffffffffffffffffff1673ffffffffffffffffffffffffffffffffffffffff161415610b0b576040517f08c379a0000000000000000000000000000000000000000000000000000000008152600401610b02906118a9565b60405180910390fd5b81600360003373ffffffffffffffffffffffffffffffffffffffff1673ffffffffffffffffffffffffffffffffffffffff16815260200190815260200160002060020160016101000a81548173ffffffffffffffffffffffffffffffffffffffff021916908373ffffffffffffffffffffffffffffffffffffffff160217905550600360008373ffffffffffffffffffffffffffffffffffffffff1673ffffffffffffffffffffffffffffffffffffffff16815260200190815260200160002060000160009054906101000a900460ff1615610d8657600360003373ffffffffffffffffffffffffffffffffffffffff1673ffffffffffffffffffffffffffffffffffffffff168152602001908152602001600020600101546001600360008573ffffffffffffffffffffffffffffffffffffffff1673ffffffffffffffffffffffffffffffffffffffff16815260200190815260200160002060020160009054906101000a900460ff1660ff1681548110610cb0577f4e487b7100000000000000000000000000000000000000000000000000000000600052603260045260246000fd5b90600052602060002090600402016002016000828254610cd09190611a01565b92505081905550600360008373ffffffffffffffffffffffffffffffffffffffff1673ffffffffffffffffffffffffffffffffffffffff16815260200190815260200160002060020160009054906101000a900460ff16600360003373ffffffffffffffffffffffffffffffffffffffff1673ffffffffffffffffffffffffffffffffffffffff16815260200190815260200160002060020160006101000a81548160ff021916908360ff160217905550610e22565b600360003373ffffffffffffffffffffffffffffffffffffffff1673ffffffffffffffffffffffffffffffffffffffff16815260200190815260200160002060010154600360008473ffffffffffffffffffffffffffffffffffffffff1673ffffffffffffffffffffffffffffffffffffffff1681526020019081526020016000206001016000828254610e1a9190611a01565b925050819055505b6001600360003373ffffffffffffffffffffffffffffffffffffffff1673ffffffffffffffffffffffffffffffffffffffff16815260200190815260200160002060000160006101000a81548160ff0219169083151502179055505050565b60008054906101000a900473ffffffffffffffffffffffffffffffffffffffff1673ffffffffffffffffffffffffffffffffffffffff163373ffffffffffffffffffffffffffffffffffffffff1614610f0f576040517f08c379a0000000000000000000000000000000000000000000000000000000008152600401610f06906118c9565b60405180910390fd5b81600360008273ffffffffffffffffffffffffffffffffffffffff1673ffffffffffffffffffffffffffffffffffffffff16815260200190815260200160002060000160009054906101000a900460ff1615610fa0576040517f08c379a0000000000000000000000000000000000000000000000000000000008152600401610f9790611909565b60405180910390fd5b60008210158015610fb2575060648211155b610ff1576040517f08c379a0000000000000000000000000000000000000000000000000000000008152600401610fe8906118e9565b60405180910390fd5b6000600360008573ffffffffffffffffffffffffffffffffffffffff1673ffffffffffffffffffffffffffffffffffffffff1681526020019081526020016000206001015414611076576040517f08c379a000000000000000000000000000000000000000000000000000000000815260040161106d90611869565b60405180910390fd5b81600360008573ffffffffffffffffffffffffffffffffffffffff1673ffffffffffffffffffffffffffffffffffffffff16815260200190815260200160002060010181905550505050565b60ff81565b600181815481106110d757600080fd5b90600052602060002090600402016000915090508060000180546110fa90611aee565b80601f016020809104026020016040519081016040528092919081815260200182805461112690611aee565b80156111735780601f1061114857610100808354040283529160200191611173565b820191906000526020600020905b81548152906001019060200180831161115657829003601f168201915b50505050509080600101805461118890611aee565b80601f01602080910402602001604051908101604052809291908181526020018280546111b490611aee565b80156112015780601f106111d657610100808354040283529160200191611201565b820191906000526020600020905b8154815290600101906020018083116111e457829003601f168201915b5050505050908060020154908060030160009054906101000a900460ff16905084565b60025481565b60008054906101000a900473ffffffffffffffffffffffffffffffffffffffff1681565b82805461125a90611aee565b90600052602060002090601f01602090048101928261127c57600085556112c3565b82601f1061129557805160ff19168380011785556112c3565b828001600101855582156112c3579182015b828111156112c25782518255916020019190600101906112a7565b5b5090506112d091906112d4565b5090565b5b808211156112ed5760008160009055506001016112d5565b5090565b60006113046112ff846119b5565b611984565b90508281526020810184848401111561131c57600080fd5b611327848285611aac565b509392505050565b60008135905061133e81611c07565b92915050565b600082601f83011261135557600080fd5b81356113658482602086016112f1565b91505092915050565b60008135905061137d81611c1e565b92915050565b60008135905061139281611c35565b92915050565b6000602082840312156113aa57600080fd5b60006113b88482850161132f565b91505092915050565b600080604083850312156113d457600080fd5b60006113e28582860161132f565b92505060206113f38582860161136e565b9150509250929050565b6000806040838503121561141057600080fd5b600083013567ffffffffffffffff81111561142a57600080fd5b61143685828601611344565b925050602083013567ffffffffffffffff81111561145357600080fd5b61145f85828601611344565b9150509250929050565b60006020828403121561147b57600080fd5b60006114898482850161136e565b91505092915050565b6000602082840312156114a457600080fd5b60006114b284828501611383565b91505092915050565b6114c481611a57565b82525050565b6114d381611a69565b82525050565b60006114e4826119e5565b6114ee81856119f0565b93506114fe818560208601611abb565b61150781611bf6565b840191505092915050565b600061151f6018836119f0565b91507f50726f706f73616c204944206f7574206f662072616e676500000000000000006000830152602082019050919050565b600061155f6018836119f0565b91507f566f74657220616c726561647920617574686f72697a656400000000000000006000830152602082019050919050565b600061159f601e836119f0565b91507f4d6178696d756d2070726f706f73616c206c696d6974207265616368656400006000830152602082019050919050565b60006115df601f836119f0565b91507f43697263756c61722064656c65676174696f6e206e6f7420616c6c6f776564006000830152602082019050919050565b600061161f6022836119f0565b91507f416374696f6e207265737472696374656420746f2061646d696e69737472617460008301527f6f720000000000000000000000000000000000000000000000000000000000006020830152604082019050919050565b60006116856015836119f0565b91507f496e76616c696420766f74696e672077656967687400000000000000000000006000830152602082019050919050565b60006116c56017836119f0565b91507f566f7465722068617320616c726561647920766f7465640000000000000000006000830152602082019050919050565b60006117056016836119f0565b91507f50726f706f73616c206973206e6f7420616374697665000000000000000000006000830152602082019050919050565b60006117456017836119f0565b91507f43616e6e6f742064656c656761746520746f2073656c660000000000000000006000830152602082019050919050565b61178181611a95565b82525050565b61179081611a9f565b82525050565b60006020820190506117ab60008301846114bb565b92915050565b60006080820190506117c660008301876114ca565b6117d36020830186611778565b6117e06040830185611787565b6117ed60608301846114bb565b95945050505050565b6000608082019050818103600083015261181081876114d9565b9050818103602083015261182481866114d9565b90506118336040830185611778565b61184060608301846114ca565b95945050505050565b6000602082019050818103600083015261186281611512565b9050919050565b6000602082019050818103600083015261188281611552565b9050919050565b600060208201905081810360008301526118a281611592565b9050919050565b600060208201905081810360008301526118c2816115d2565b9050919050565b600060208201905081810360008301526118e281611612565b9050919050565b6000602082019050818103600083015261190281611678565b9050919050565b60006020820190508181036000830152611922816116b8565b9050919050565b60006020820190508181036000830152611942816116f8565b9050919050565b6000602082019050818103600083015261196281611738565b9050919050565b600060208201905061197e6000830184611778565b92915050565b6000604051905081810181811067ffffffffffffffff821117156119ab576119aa611bc7565b5b8060405250919050565b600067ffffffffffffffff8211156119d0576119cf611bc7565b5b601f19601f8301169050602081019050919050565b600081519050919050565b600082825260208201905092915050565b6000611a0c82611a95565b9150611a1783611a95565b9250827fffffffffffffffffffffffffffffffffffffffffffffffffffffffffffffffff03821115611a4c57611a4b611b69565b5b828201905092915050565b6000611a6282611a75565b9050919050565b60008115159050919050565b600073ffffffffffffffffffffffffffffffffffffffff82169050919050565b6000819050919050565b600060ff82169050919050565b82818337600083830152505050565b60005b83811015611ad9578082015181840152602081019050611abe565b83811115611ae8576000848401525b50505050565b60006002820490506001821680611b0657607f821691505b60208210811415611b1a57611b19611b98565b5b50919050565b6000611b2b82611a95565b91507fffffffffffffffffffffffffffffffffffffffffffffffffffffffffffffffff821415611b5e57611b5d611b69565b5b600182019050919050565b7f4e487b7100000000000000000000000000000000000000000000000000000000600052601160045260246000fd5b7f4e487b7100000000000000000000000000000000000000000000000000000000600052602260045260246000fd5b7f4e487b7100000000000000000000000000000000000000000000000000000000600052604160045260246000fd5b6000601f19601f8301169050919050565b611c1081611a57565b8114611c1b57600080fd5b50565b611c2781611a95565b8114611c3257600080fd5b50565b611c3e81611a9f565b8114611c4957600080fd5b5056fea264697066735822122075f9b5bdd0765d1dff896746f6952f7ce74a982760908716518af0f945d8c32264736f6c63430008000033",
  "immutableReferences": {},
  "source": "// SPDX-License-Identifier: UNLICENSED\r\npragma solidity >=0.4.22;\r\n\r\ncontract BallotSystem {\r\n\r\n    struct Voter {\r\n        bool hasVoted;    \r\n        uint weight;    \r\n        uint8 selectedProposal;  \r\n        address delegateAddress; \r\n    }\r\n\r\n    struct Proposal {\r\n        string title;    \r\n        string description; \r\n        uint voteCount; \r\n        bool isActive; \r\n    }\r\n\r\n    address public administrator;\r\n\r\n    Proposal[] public proposalsList;\r\n\r\n    uint public currentProposalCount;\r\n\r\n    uint public constant MAX_UINT8 = (2**8) - 1;\r\n\r\n    mapping(address => Voter) public voterRegistry;\r\n\r\n    constructor(uint initialWeight) {\r\n        administrator = msg.sender;\r\n        voterRegistry[administrator].weight = initialWeight;\r\n        \r\n        for (uint i = 0; i <= MAX_UINT8; i++) {\r\n            proposalsList.push(Proposal(\"\", \"\", 0, false));\r\n        }\r\n    }\r\n\r\n    function addProposal(string memory proposalTitle, string memory proposalDescription) public {\r\n        require(currentProposalCount < MAX_UINT8, \"Maximum proposal limit reached\");\r\n\r\n        currentProposalCount++;\r\n        proposalsList[currentProposalCount].title = proposalTitle;\r\n        proposalsList[currentProposalCount].description = proposalDescription;\r\n        proposalsList[currentProposalCount].isActive = true;\r\n    }\r\n\r\n    modifier onlyAdministrator {\r\n        require(msg.sender == administrator, \"Action restricted to administrator\");\r\n        _;\r\n    }\r\n\r\n    modifier hasNotVoted(address voter) {\r\n        require(!voterRegistry[voter].hasVoted, \"Voter has already voted\");\r\n        _;\r\n    }\r\n\r\n    function authorizeVoter(address voter, uint weight) public onlyAdministrator hasNotVoted(voter) {\r\n        require(weight >= 0 && weight <= 100, \"Invalid voting weight\");\r\n        require(voterRegistry[voter].weight == 0, \"Voter already authorized\");\r\n        voterRegistry[voter].weight = weight;\r\n    }\r\n\r\n    function delegateVote(address to) public hasNotVoted(msg.sender) {\r\n        require(to != msg.sender, \"Cannot delegate to self\");\r\n        \r\n        while (voterRegistry[to].delegateAddress != address(0) && voterRegistry[to].delegateAddress != msg.sender) {\r\n            to = voterRegistry[to].delegateAddress;\r\n        }\r\n        \r\n        require(voterRegistry[to].delegateAddress != msg.sender, \"Circular delegation not allowed\");\r\n        \r\n        voterRegistry[msg.sender].delegateAddress = to;\r\n        \r\n        if (voterRegistry[to].hasVoted) {\r\n            proposalsList[voterRegistry[to].selectedProposal].voteCount += voterRegistry[msg.sender].weight;\r\n            voterRegistry[msg.sender].selectedProposal = voterRegistry[to].selectedProposal;\r\n        } else {\r\n            voterRegistry[to].weight += voterRegistry[msg.sender].weight;\r\n        }\r\n        \r\n        voterRegistry[msg.sender].hasVoted = true;\r\n    }\r\n\r\n    function castVote(uint8 proposalID) public hasNotVoted(msg.sender) {\r\n        require(proposalID >= 0 && proposalID <= MAX_UINT8, \"Proposal ID out of range\");\r\n        require(proposalsList[proposalID].isActive, \"Proposal is not active\");\r\n        \r\n        proposalsList[proposalID].voteCount += voterRegistry[msg.sender].weight;\r\n        voterRegistry[msg.sender].selectedProposal = proposalID;\r\n        voterRegistry[msg.sender].hasVoted = true;\r\n    }\r\n\r\n    function winningProposal() public view returns (uint winningProposal_) {\r\n        uint winningVoteCount = 0;\r\n        for (uint p = 0; p < proposalsList.length; p++) {\r\n            if (proposalsList[p].voteCount > winningVoteCount) {\r\n                winningVoteCount = proposalsList[p].voteCount;\r\n                winningProposal_ = p;\r\n            }\r\n        }\r\n    }\r\n}\r\n",
  "sourcePath": "C:\\Users\\86139\\Desktop\\yitaifang\\contracts\\hol.sol",
  "compiler": {
    "name": "solc",
    "version": "0.8.0+commit.c7dfd78e.Emscripten.clang"
  },
  "schemaVersion": "3.4.16",
  "updatedAt": "2024-06-20T13:55:39.509Z",
  "devdoc": {
    "kind": "dev",
    "methods": {},
    "version": 1
  },
  "userdoc": {
    "kind": "user",
    "methods": {},
    "version": 1
  }
}