{
  "contractName": "Myballot",
  "abi": [
    {
      "inputs": [
        {
          "internalType": "uint256",
          "name": "_chairpersonWight",
          "type": "uint256"
        }
      ],
      "stateMutability": "nonpayable",
      "type": "constructor"
    },
    {
      "inputs": [],
      "name": "UINT8_MAX_VALUE",
      "outputs": [
        {
          "internalType": "uint256",
          "name": "",
          "type": "uint256"
        }
      ],
      "stateMutability": "view",
      "type": "function"
    },
    {
      "inputs": [],
      "name": "chairperson",
      "outputs": [
        {
          "internalType": "address",
          "name": "",
          "type": "address"
        }
      ],
      "stateMutability": "view",
      "type": "function"
    },
    {
      "inputs": [],
      "name": "nowNumProposal",
      "outputs": [
        {
          "internalType": "uint256",
          "name": "",
          "type": "uint256"
        }
      ],
      "stateMutability": "view",
      "type": "function"
    },
    {
      "inputs": [
        {
          "internalType": "uint256",
          "name": "",
          "type": "uint256"
        }
      ],
      "name": "proposals",
      "outputs": [
        {
          "internalType": "string",
          "name": "name",
          "type": "string"
        },
        {
          "internalType": "string",
          "name": "content",
          "type": "string"
        },
        {
          "internalType": "uint256",
          "name": "voteCount",
          "type": "uint256"
        },
        {
          "internalType": "bool",
          "name": "enable",
          "type": "bool"
        }
      ],
      "stateMutability": "view",
      "type": "function"
    },
    {
      "inputs": [
        {
          "internalType": "address",
          "name": "",
          "type": "address"
        }
      ],
      "name": "voters",
      "outputs": [
        {
          "internalType": "bool",
          "name": "voted",
          "type": "bool"
        },
        {
          "internalType": "uint256",
          "name": "weight",
          "type": "uint256"
        },
        {
          "internalType": "uint8",
          "name": "vote_id",
          "type": "uint8"
        },
        {
          "internalType": "address",
          "name": "delegate",
          "type": "address"
        }
      ],
      "stateMutability": "view",
      "type": "function"
    },
    {
      "inputs": [
        {
          "internalType": "string",
          "name": "_proposalName",
          "type": "string"
        },
        {
          "internalType": "string",
          "name": "_proposalContent",
          "type": "string"
        }
      ],
      "name": "applyProposal",
      "outputs": [],
      "stateMutability": "nonpayable",
      "type": "function"
    },
    {
      "inputs": [
        {
          "internalType": "address",
          "name": "_voter",
          "type": "address"
        },
        {
          "internalType": "uint256",
          "name": "_weight",
          "type": "uint256"
        }
      ],
      "name": "authorizedVote",
      "outputs": [],
      "stateMutability": "nonpayable",
      "type": "function"
    },
    {
      "inputs": [
        {
          "internalType": "address",
          "name": "_to",
          "type": "address"
        }
      ],
      "name": "delegateVoting",
      "outputs": [],
      "stateMutability": "nonpayable",
      "type": "function"
    },
    {
      "inputs": [
        {
          "internalType": "uint8",
          "name": "_proposalID",
          "type": "uint8"
        }
      ],
      "name": "vote",
      "outputs": [],
      "stateMutability": "nonpayable",
      "type": "function"
    }
  ],
  "bytecode": "0x608060405260ff6003553480156200001657600080fd5b5060405162001f4e38038062001f4e83398181016040528101906200003c9190620002ae565b336000806101000a81548173ffffffffffffffffffffffffffffffffffffffff021916908373ffffffffffffffffffffffffffffffffffffffff16021790555080600460008060009054906101000a900473ffffffffffffffffffffffffffffffffffffffff1673ffffffffffffffffffffffffffffffffffffffff1673ffffffffffffffffffffffffffffffffffffffff1681526020019081526020016000206001018190555060005b6003548111620001df57600160405180608001604052806040518060200160405280600081525081526020016040518060200160405280600081525081526020016000815260200160001515815250908060018154018082558091505060019003906000526020600020906004020160009091909190915060008201518160000190805190602001906200017d929190620001e7565b5060208201518160010190805190602001906200019c929190620001e7565b506040820151816002015560608201518160030160006101000a81548160ff02191690831515021790555050508080620001d6906200031a565b915050620000e7565b5050620003e0565b828054620001f590620002e4565b90600052602060002090601f01602090048101928262000219576000855562000265565b82601f106200023457805160ff191683800117855562000265565b8280016001018555821562000265579182015b828111156200026457825182559160200191906001019062000247565b5b50905062000274919062000278565b5090565b5b808211156200029357600081600090555060010162000279565b5090565b600081519050620002a881620003c6565b92915050565b600060208284031215620002c157600080fd5b6000620002d18482850162000297565b91505092915050565b6000819050919050565b60006002820490506001821680620002fd57607f821691505b6020821081141562000314576200031362000397565b5b50919050565b60006200032782620002da565b91507fffffffffffffffffffffffffffffffffffffffffffffffffffffffffffffffff8214156200035d576200035c62000368565b5b600182019050919050565b7f4e487b7100000000000000000000000000000000000000000000000000000000600052601160045260246000fd5b7f4e487b7100000000000000000000000000000000000000000000000000000000600052602260045260246000fd5b620003d181620002da565b8114620003dd57600080fd5b50565b611b5e80620003f06000396000f3fe608060405234801561001057600080fd5b50600436106100935760003560e01c8063765cb83a11610066578063765cb83a14610123578063a3ec138d1461013f578063b3f98adc14610172578063d74ff59c1461018e578063fb78a817146101aa57610093565b8063013cf08b1461009857806314230e8f146100cb5780632e4176cf146100e75780635476087614610105575b600080fd5b6100b260048036038101906100ad919061137f565b6101c8565b6040516100c294939291906116f2565b60405180910390f35b6100e560048036038101906100e091906112d7565b610325565b005b6100ef61056c565b6040516100fc9190611692565b60405180910390f35b61010d610590565b60405161011a9190611845565b60405180910390f35b61013d600480360381019061013891906112ae565b610596565b005b610159600480360381019061015491906112ae565b610c80565b60405161016994939291906116ad565b60405180910390f35b61018c600480360381019061018791906113a8565b610cea565b005b6101a860048036038101906101a39190611313565b610fd5565b005b6101b261115e565b6040516101bf9190611845565b60405180910390f35b600181815481106101d857600080fd5b90600052602060002090600402016000915090508060000180546101fb906119ca565b80601f0160208091040260200160405190810160405280929190818152602001828054610227906119ca565b80156102745780601f1061024957610100808354040283529160200191610274565b820191906000526020600020905b81548152906001019060200180831161025757829003601f168201915b505050505090806001018054610289906119ca565b80601f01602080910402602001604051908101604052809291908181526020018280546102b5906119ca565b80156103025780601f106102d757610100808354040283529160200191610302565b820191906000526020600020905b8154815290600101906020018083116102e557829003601f168201915b5050505050908060020154908060030160009054906101000a900460ff16905084565b60008054906101000a900473ffffffffffffffffffffffffffffffffffffffff1673ffffffffffffffffffffffffffffffffffffffff163373ffffffffffffffffffffffffffffffffffffffff16146103b3576040517f08c379a00000000000000000000000000000000000000000000000000000000081526004016103aa90611825565b60405180910390fd5b8160001515600460008373ffffffffffffffffffffffffffffffffffffffff1673ffffffffffffffffffffffffffffffffffffffff16815260200190815260200160002060000160009054906101000a900460ff1615151461044a576040517f08c379a000000000000000000000000000000000000000000000000000000000815260040161044190611745565b60405180910390fd5b6000821015801561045c575060648211155b61049b576040517f08c379a000000000000000000000000000000000000000000000000000000000815260040161049290611745565b60405180910390fd5b6000600460008573ffffffffffffffffffffffffffffffffffffffff1673ffffffffffffffffffffffffffffffffffffffff1681526020019081526020016000206001015414610520576040517f08c379a0000000000000000000000000000000000000000000000000000000008152600401610517906117c5565b60405180910390fd5b81600460008573ffffffffffffffffffffffffffffffffffffffff1673ffffffffffffffffffffffffffffffffffffffff16815260200190815260200160002060010181905550505050565b60008054906101000a900473ffffffffffffffffffffffffffffffffffffffff1681565b60035481565b3360001515600460008373ffffffffffffffffffffffffffffffffffffffff1673ffffffffffffffffffffffffffffffffffffffff16815260200190815260200160002060000160009054906101000a900460ff1615151461062d576040517f08c379a000000000000000000000000000000000000000000000000000000000815260040161062490611745565b60405180910390fd5b3373ffffffffffffffffffffffffffffffffffffffff168273ffffffffffffffffffffffffffffffffffffffff16141561069c576040517f08c379a000000000000000000000000000000000000000000000000000000000815260040161069390611765565b60405180910390fd5b5b600073ffffffffffffffffffffffffffffffffffffffff16600460008473ffffffffffffffffffffffffffffffffffffffff1673ffffffffffffffffffffffffffffffffffffffff16815260200190815260200160002060020160019054906101000a900473ffffffffffffffffffffffffffffffffffffffff1673ffffffffffffffffffffffffffffffffffffffff16141580156107ca57503373ffffffffffffffffffffffffffffffffffffffff16600460008473ffffffffffffffffffffffffffffffffffffffff1673ffffffffffffffffffffffffffffffffffffffff16815260200190815260200160002060020160019054906101000a900473ffffffffffffffffffffffffffffffffffffffff1673ffffffffffffffffffffffffffffffffffffffff1614155b1561083957600460008373ffffffffffffffffffffffffffffffffffffffff1673ffffffffffffffffffffffffffffffffffffffff16815260200190815260200160002060020160019054906101000a900473ffffffffffffffffffffffffffffffffffffffff16915061069d565b3373ffffffffffffffffffffffffffffffffffffffff16600460008473ffffffffffffffffffffffffffffffffffffffff1673ffffffffffffffffffffffffffffffffffffffff16815260200190815260200160002060020160019054906101000a900473ffffffffffffffffffffffffffffffffffffffff1673ffffffffffffffffffffffffffffffffffffffff16141561090a576040517f08c379a000000000000000000000000000000000000000000000000000000000815260040161090190611805565b60405180910390fd5b81600460003373ffffffffffffffffffffffffffffffffffffffff1673ffffffffffffffffffffffffffffffffffffffff16815260200190815260200160002060020160016101000a81548173ffffffffffffffffffffffffffffffffffffffff021916908373ffffffffffffffffffffffffffffffffffffffff160217905550600460008373ffffffffffffffffffffffffffffffffffffffff1673ffffffffffffffffffffffffffffffffffffffff16815260200190815260200160002060000160009054906101000a900460ff1615610b8557600460003373ffffffffffffffffffffffffffffffffffffffff1673ffffffffffffffffffffffffffffffffffffffff168152602001908152602001600020600101546001600460008573ffffffffffffffffffffffffffffffffffffffff1673ffffffffffffffffffffffffffffffffffffffff16815260200190815260200160002060020160009054906101000a900460ff1660ff1681548110610aaf577f4e487b7100000000000000000000000000000000000000000000000000000000600052603260045260246000fd5b90600052602060002090600402016002016000828254610acf91906118dd565b92505081905550600460008373ffffffffffffffffffffffffffffffffffffffff1673ffffffffffffffffffffffffffffffffffffffff16815260200190815260200160002060020160009054906101000a900460ff16600460003373ffffffffffffffffffffffffffffffffffffffff1673ffffffffffffffffffffffffffffffffffffffff16815260200190815260200160002060020160006101000a81548160ff021916908360ff160217905550610c21565b600460003373ffffffffffffffffffffffffffffffffffffffff1673ffffffffffffffffffffffffffffffffffffffff16815260200190815260200160002060010154600460008473ffffffffffffffffffffffffffffffffffffffff1673ffffffffffffffffffffffffffffffffffffffff1681526020019081526020016000206001016000828254610c1991906118dd565b925050819055505b6001600460003373ffffffffffffffffffffffffffffffffffffffff1673ffffffffffffffffffffffffffffffffffffffff16815260200190815260200160002060000160006101000a81548160ff0219169083151502179055505050565b60046020528060005260406000206000915090508060000160009054906101000a900460ff16908060010154908060020160009054906101000a900460ff16908060020160019054906101000a900473ffffffffffffffffffffffffffffffffffffffff16905084565b3360001515600460008373ffffffffffffffffffffffffffffffffffffffff1673ffffffffffffffffffffffffffffffffffffffff16815260200190815260200160002060000160009054906101000a900460ff16151514610d81576040517f08c379a0000000000000000000000000000000000000000000000000000000008152600401610d7890611745565b60405180910390fd5b60008260ff1610158015610d9a57506003548260ff1611155b610dd9576040517f08c379a0000000000000000000000000000000000000000000000000000000008152600401610dd090611785565b60405180910390fd5b60018260ff1681548110610e16577f4e487b7100000000000000000000000000000000000000000000000000000000600052603260045260246000fd5b906000526020600020906004020160030160009054906101000a900460ff16610e74576040517f08c379a0000000000000000000000000000000000000000000000000000000008152600401610e6b906117a5565b60405180910390fd5b600460003373ffffffffffffffffffffffffffffffffffffffff1673ffffffffffffffffffffffffffffffffffffffff1681526020019081526020016000206001015460018360ff1681548110610ef4577f4e487b7100000000000000000000000000000000000000000000000000000000600052603260045260246000fd5b90600052602060002090600402016002016000828254610f1491906118dd565b9250508190555081600460003373ffffffffffffffffffffffffffffffffffffffff1673ffffffffffffffffffffffffffffffffffffffff16815260200190815260200160002060020160006101000a81548160ff021916908360ff1602179055506001600460003373ffffffffffffffffffffffffffffffffffffffff1673ffffffffffffffffffffffffffffffffffffffff16815260200190815260200160002060000160006101000a81548160ff0219169083151502179055505050565b6003546002541061101b576040517f08c379a0000000000000000000000000000000000000000000000000000000008152600401611012906117e5565b60405180910390fd5b60026000815461102a906119fc565b919050819055508160016002548154811061106e577f4e487b7100000000000000000000000000000000000000000000000000000000600052603260045260246000fd5b90600052602060002090600402016000019080519060200190611092929190611164565b50806001600254815481106110d0577f4e487b7100000000000000000000000000000000000000000000000000000000600052603260045260246000fd5b906000526020600020906004020160010190805190602001906110f4929190611164565b5060018060025481548110611132577f4e487b7100000000000000000000000000000000000000000000000000000000600052603260045260246000fd5b906000526020600020906004020160030160006101000a81548160ff0219169083151502179055505050565b60025481565b828054611170906119ca565b90600052602060002090601f01602090048101928261119257600085556111d9565b82601f106111ab57805160ff19168380011785556111d9565b828001600101855582156111d9579182015b828111156111d85782518255916020019190600101906111bd565b5b5090506111e691906111ea565b5090565b5b808211156112035760008160009055506001016111eb565b5090565b600061121a61121584611891565b611860565b90508281526020810184848401111561123257600080fd5b61123d848285611988565b509392505050565b60008135905061125481611ae3565b92915050565b600082601f83011261126b57600080fd5b813561127b848260208601611207565b91505092915050565b60008135905061129381611afa565b92915050565b6000813590506112a881611b11565b92915050565b6000602082840312156112c057600080fd5b60006112ce84828501611245565b91505092915050565b600080604083850312156112ea57600080fd5b60006112f885828601611245565b925050602061130985828601611284565b9150509250929050565b6000806040838503121561132657600080fd5b600083013567ffffffffffffffff81111561134057600080fd5b61134c8582860161125a565b925050602083013567ffffffffffffffff81111561136957600080fd5b6113758582860161125a565b9150509250929050565b60006020828403121561139157600080fd5b600061139f84828501611284565b91505092915050565b6000602082840312156113ba57600080fd5b60006113c884828501611299565b91505092915050565b6113da81611933565b82525050565b6113e981611945565b82525050565b60006113fa826118c1565b61140481856118cc565b9350611414818560208601611997565b61141d81611ad2565b840191505092915050565b6000611435601c836118cc565b91507f566f74696e67207765696768742072616e6765206578636565646564000000006000830152602082019050919050565b60006114756029836118cc565b91507f596f752063616e6e6f742067697665206167656e63792072696768747320746f60008301527f20796f757273656c6600000000000000000000000000000000000000000000006020830152604082019050919050565b60006114db6010836118cc565b91507f4944206265796f6e64206e756d626572000000000000000000000000000000006000830152602082019050919050565b600061151b6011836118cc565b91507f70726f706f73616c206e6f74206f70656e0000000000000000000000000000006000830152602082019050919050565b600061155b6021836118cc565b91507f4f6e6c79206f6e6520617574686f72697a6174696f6e20697320616c6c6f776560008301527f64000000000000000000000000000000000000000000000000000000000000006020830152604082019050919050565b60006115c1600d836118cc565b91507f70726f706f73616c2066756c6c000000000000000000000000000000000000006000830152602082019050919050565b60006116016014836118cc565b91507f4e6f6e2d72656379636c61626c652070726f78790000000000000000000000006000830152602082019050919050565b6000611641601d836118cc565b91507f4f6e6c79207468652063686169726d616e2063616e206f7065726174650000006000830152602082019050919050565b61167d81611971565b82525050565b61168c8161197b565b82525050565b60006020820190506116a760008301846113d1565b92915050565b60006080820190506116c260008301876113e0565b6116cf6020830186611674565b6116dc6040830185611683565b6116e960608301846113d1565b95945050505050565b6000608082019050818103600083015261170c81876113ef565b9050818103602083015261172081866113ef565b905061172f6040830185611674565b61173c60608301846113e0565b95945050505050565b6000602082019050818103600083015261175e81611428565b9050919050565b6000602082019050818103600083015261177e81611468565b9050919050565b6000602082019050818103600083015261179e816114ce565b9050919050565b600060208201905081810360008301526117be8161150e565b9050919050565b600060208201905081810360008301526117de8161154e565b9050919050565b600060208201905081810360008301526117fe816115b4565b9050919050565b6000602082019050818103600083015261181e816115f4565b9050919050565b6000602082019050818103600083015261183e81611634565b9050919050565b600060208201905061185a6000830184611674565b92915050565b6000604051905081810181811067ffffffffffffffff8211171561188757611886611aa3565b5b8060405250919050565b600067ffffffffffffffff8211156118ac576118ab611aa3565b5b601f19601f8301169050602081019050919050565b600081519050919050565b600082825260208201905092915050565b60006118e882611971565b91506118f383611971565b9250827fffffffffffffffffffffffffffffffffffffffffffffffffffffffffffffffff0382111561192857611927611a45565b5b828201905092915050565b600061193e82611951565b9050919050565b60008115159050919050565b600073ffffffffffffffffffffffffffffffffffffffff82169050919050565b6000819050919050565b600060ff82169050919050565b82818337600083830152505050565b60005b838110156119b557808201518184015260208101905061199a565b838111156119c4576000848401525b50505050565b600060028204905060018216806119e257607f821691505b602082108114156119f6576119f5611a74565b5b50919050565b6000611a0782611971565b91507fffffffffffffffffffffffffffffffffffffffffffffffffffffffffffffffff821415611a3a57611a39611a45565b5b600182019050919050565b7f4e487b7100000000000000000000000000000000000000000000000000000000600052601160045260246000fd5b7f4e487b7100000000000000000000000000000000000000000000000000000000600052602260045260246000fd5b7f4e487b7100000000000000000000000000000000000000000000000000000000600052604160045260246000fd5b6000601f19601f8301169050919050565b611aec81611933565b8114611af757600080fd5b50565b611b0381611971565b8114611b0e57600080fd5b50565b611b1a8161197b565b8114611b2557600080fd5b5056fea2646970667358221220c935e3de2bda67faffb65c271c9ea97b4681b657b507641f2ba2777285e6ed3164736f6c63430008000033",
  "immutableReferences": {},
  "source": "// SPDX-License-Identifier: UNLICENSED\r\npragma solidity >=0.4.22;\r\n\r\ncontract Myballot {\r\n\r\n    //\r\n    struct Voter {\r\n        bool voted;     //\r\n        uint weight;    //\r\n        uint8 vote_id;  //id,\r\n        address delegate; //\r\n    }\r\n\r\n    //\r\n    struct Proposal {\r\n        string name;    //\r\n        string content; //\r\n        uint voteCount; //\r\n        bool enable; //\r\n    }\r\n\r\n    //\r\n    address public chairperson;\r\n\r\n    //,idmapping\r\n    Proposal[] public proposals;\r\n\r\n    //\r\n    uint public nowNumProposal;\r\n\r\n    //Uint8\r\n    uint public UINT8_MAX_VALUE = (2**8) - 1;\r\n\r\n    //\r\n    mapping(address => Voter) public voters;\r\n\r\n    constructor(uint _chairpersonWight) {\r\n        //\r\n        chairperson = msg.sender;\r\n        voters[chairperson].weight = _chairpersonWight;\r\n        \r\n        // \r\n        for (uint i = 0; i <= UINT8_MAX_VALUE; i++) {\r\n            proposals.push(Proposal(\"\", \"\", 0, false));\r\n        }\r\n    }\r\n\r\n    //\r\n    function applyProposal(string memory _proposalName, string memory _proposalContent) public {\r\n        //\r\n        require(nowNumProposal < UINT8_MAX_VALUE, \"proposal full\");//\r\n        //1 \r\n        ++nowNumProposal;\r\n        //\r\n        proposals[nowNumProposal].name = _proposalName;\r\n        proposals[nowNumProposal].content = _proposalContent;\r\n        proposals[nowNumProposal].enable = true;\r\n    }\r\n\r\n    //\r\n    modifier Onlychairperson {\r\n        require(msg.sender == chairperson, \"Only the chairman can operate\");   //\r\n        _;\r\n    }\r\n\r\n    //\r\n    modifier haveVoted(address someone) {\r\n        require(voters[someone].voted == false, \"Voting weight range exceeded\");   //\r\n        _;\r\n    }\r\n\r\n    //\r\n    function authorizedVote(address _voter, uint _weight) public Onlychairperson haveVoted(_voter) {\r\n        require(_weight >= 0 && _weight <= 100, \"Voting weight range exceeded\");  //\r\n        require(voters[_voter].weight == 0, \"Only one authorization is allowed\"); //\r\n        voters[_voter].weight = _weight;\r\n    }\r\n\r\n    //\r\n    function delegateVoting(address _to) public haveVoted(msg.sender) {\r\n        //\r\n        //while\r\n        require(_to != msg.sender, \"You cannot give agency rights to yourself\");   //\r\n        //\r\n        //while\r\n        // voters[_to].delegate != address(0)\r\n        // voters[_to].delegate != msg.sender\r\n        //\r\n        while (voters[_to].delegate != address(0) && voters[_to].delegate != msg.sender)\r\n            _to = voters[_to].delegate; //_to\r\n        require(voters[_to].delegate != msg.sender, \"Non-recyclable proxy\");  //\r\n        //\r\n        voters[msg.sender].delegate = _to;\r\n        if (voters[_to].voted) {\r\n            //,\r\n            proposals[voters[_to].vote_id].voteCount += voters[msg.sender].weight;\r\n            voters[msg.sender].vote_id = voters[_to].vote_id;\r\n        } else {\r\n            //\r\n            voters[_to].weight += voters[msg.sender].weight;\r\n        }\r\n        voters[msg.sender].voted = true;\r\n    }\r\n\r\n    //\r\n    function vote(uint8 _proposalID) public haveVoted(msg.sender) {\r\n        require(_proposalID >= 0 && _proposalID <= UINT8_MAX_VALUE, \"ID beyond number\"); //IDID\r\n        require(proposals[_proposalID].enable, \"proposal not open\");  //\r\n        proposals[_proposalID].voteCount += voters[msg.sender].weight;\r\n        voters[msg.sender].vote_id = _proposalID;\r\n        voters[msg.sender].voted = true;\r\n    }\r\n}\r\n",
  "sourcePath": "C:\\Users\\86139\\Desktop\\yitaifang\\contracts\\hol.sol",
  "compiler": {
    "name": "solc",
    "version": "0.8.0+commit.c7dfd78e.Emscripten.clang"
  },
  "schemaVersion": "3.4.16",
  "updatedAt": "2024-06-20T13:08:16.014Z",
  "devdoc": {
    "kind": "dev",
    "methods": {},
    "version": 1
  },
  "userdoc": {
    "kind": "user",
    "methods": {},
    "version": 1
  }
}